{
  "_format": "hh-sol-artifact-1",
  "contractName": "Tipdapp",
  "sourceName": "contracts/Tipdapp.sol",
  "abi": [
    {
      "inputs": [],
      "stateMutability": "payable",
      "type": "constructor"
    },
    {
      "anonymous": false,
      "inputs": [
        {
          "indexed": true,
          "internalType": "address",
          "name": "_from",
          "type": "address"
        },
        {
          "indexed": false,
          "internalType": "uint256",
          "name": "_timestamp",
          "type": "uint256"
        },
        {
          "indexed": false,
          "internalType": "string",
          "name": "_message",
          "type": "string"
        }
      ],
      "name": "NewTip",
      "type": "event"
    },
    {
      "inputs": [],
      "name": "getAllTips",
      "outputs": [
        {
          "components": [
            {
              "internalType": "address",
              "name": "tipper",
              "type": "address"
            },
            {
              "internalType": "string",
              "name": "message",
              "type": "string"
            },
            {
              "internalType": "uint256",
              "name": "timestamp",
              "type": "uint256"
            }
          ],
          "internalType": "struct Tipdapp.Tip[]",
          "name": "",
          "type": "tuple[]"
        }
      ],
      "stateMutability": "view",
      "type": "function"
    },
    {
      "inputs": [
        {
          "internalType": "address",
          "name": "",
          "type": "address"
        }
      ],
      "name": "lastWavedAt",
      "outputs": [
        {
          "internalType": "uint256",
          "name": "",
          "type": "uint256"
        }
      ],
      "stateMutability": "view",
      "type": "function"
    },
    {
      "inputs": [
        {
          "internalType": "string",
          "name": "_message",
          "type": "string"
        }
      ],
      "name": "sendTip",
      "outputs": [],
      "stateMutability": "nonpayable",
      "type": "function"
    }
  ],
  "bytecode": "0x60806040526200004f6040518060400160405280601581526020017f436f6e747261637420696e697469616c697365642e00000000000000000000008152506200007760201b620005fc1760201c565b606444426200005f9190620001c4565b6200006b919062000261565b60008190555062000308565b62000117816040516024016200008e919062000184565b6040516020818303038152906040527f41304fac000000000000000000000000000000000000000000000000000000007bffffffffffffffffffffffffffffffffffffffffffffffffffffffff19166020820180517bffffffffffffffffffffffffffffffffffffffffffffffffffffffff83818316178352505050506200011a60201b60201c565b50565b60008151905060006a636f6e736f6c652e6c6f679050602083016000808483855afa5050505050565b60006200015082620001a8565b6200015c8185620001b3565b93506200016e8185602086016200022b565b6200017981620002f7565b840191505092915050565b60006020820190508181036000830152620001a0818462000143565b905092915050565b600081519050919050565b600082825260208201905092915050565b6000620001d18262000221565b9150620001de8362000221565b9250827fffffffffffffffffffffffffffffffffffffffffffffffffffffffffffffffff0382111562000216576200021562000299565b5b828201905092915050565b6000819050919050565b60005b838110156200024b5780820151818401526020810190506200022e565b838111156200025b576000848401525b50505050565b60006200026e8262000221565b91506200027b8362000221565b9250826200028e576200028d620002c8565b5b828206905092915050565b7f4e487b7100000000000000000000000000000000000000000000000000000000600052601160045260246000fd5b7f4e487b7100000000000000000000000000000000000000000000000000000000600052601260045260246000fd5b6000601f19601f8301169050919050565b61121480620003186000396000f3fe608060405234801561001057600080fd5b50600436106100415760003560e01c8063399ddbbd146100465780637f5154b414610064578063a42a466314610080575b600080fd5b61004e6100b0565b60405161005b9190610c47565b60405180910390f35b61007e600480360381019061007991906109de565b610201565b005b61009a600480360381019061009591906109b5565b6105e4565b6040516100a79190610d90565b60405180910390f35b60606001805480602002602001604051908101604052809291908181526020016000905b828210156101f857838290600052602060002090600302016040518060600160405290816000820160009054906101000a900473ffffffffffffffffffffffffffffffffffffffff1673ffffffffffffffffffffffffffffffffffffffff1673ffffffffffffffffffffffffffffffffffffffff16815260200160018201805461015d90610f76565b80601f016020809104026020016040519081016040528092919081815260200182805461018990610f76565b80156101d65780601f106101ab576101008083540402835291602001916101d6565b820191906000526020600020905b8154815290600101906020018083116101b957829003601f168201915b50505050508152602001600282015481525050815260200190600101906100d4565b50505050905090565b42610258600260003373ffffffffffffffffffffffffffffffffffffffff1673ffffffffffffffffffffffffffffffffffffffff1681526020019081526020016000205461024f9190610ea2565b1061028f576040517f08c379a000000000000000000000000000000000000000000000000000000000815260040161028690610d70565b60405180910390fd5b42600260003373ffffffffffffffffffffffffffffffffffffffff1673ffffffffffffffffffffffffffffffffffffffff168152602001908152602001600020819055506103136040518060400160405280601881526020017f2573207469707065643a20772f206d65737361676520257300000000000000008152503383610695565b600160405180606001604052803373ffffffffffffffffffffffffffffffffffffffff16815260200183815260200142815250908060018154018082558091505060019003906000526020600020906003020160009091909190915060008201518160000160006101000a81548173ffffffffffffffffffffffffffffffffffffffff021916908373ffffffffffffffffffffffffffffffffffffffff16021790555060208201518160010190805190602001906103d2929190610895565b50604082015181600201555050606460005442446103f09190610ea2565b6103fa9190610ea2565b6104049190610fd9565b60008190555061044b6040518060400160405280601681526020017f52616e646f6d20232067656e6572617465643a20256400000000000000000000815250600054610734565b603260005411610591576104946040518060400160405280600781526020017f257320776f6e2100000000000000000000000000000000000000000000000000815250336107d0565b6000655af3107a40009050478111156104e2576040517f08c379a00000000000000000000000000000000000000000000000000000000081526004016104d990610d30565b60405180910390fd5b60003373ffffffffffffffffffffffffffffffffffffffff168260405161050890610c32565b60006040518083038185875af1925050503d8060008114610545576040519150601f19603f3d011682016040523d82523d6000602084013e61054a565b606091505b505090508061058e576040517f08c379a000000000000000000000000000000000000000000000000000000000815260040161058590610d50565b60405180910390fd5b50505b3373ffffffffffffffffffffffffffffffffffffffff167f2edbe3c16cfdf7d59d3418a7bebc467863d7aee89bc4da07262936cf15fb497142836040516105d9929190610dab565b60405180910390a250565b60026020528060005260406000206000915090505481565b610692816040516024016106109190610c69565b6040516020818303038152906040527f41304fac000000000000000000000000000000000000000000000000000000007bffffffffffffffffffffffffffffffffffffffffffffffffffffffff19166020820180517bffffffffffffffffffffffffffffffffffffffffffffffffffffffff838183161783525050505061086c565b50565b61072f8383836040516024016106ad93929190610cbb565b6040516020818303038152906040527fe0e9ad4f000000000000000000000000000000000000000000000000000000007bffffffffffffffffffffffffffffffffffffffffffffffffffffffff19166020820180517bffffffffffffffffffffffffffffffffffffffffffffffffffffffff838183161783525050505061086c565b505050565b6107cc828260405160240161074a929190610d00565b6040516020818303038152906040527f9710a9d0000000000000000000000000000000000000000000000000000000007bffffffffffffffffffffffffffffffffffffffffffffffffffffffff19166020820180517bffffffffffffffffffffffffffffffffffffffffffffffffffffffff838183161783525050505061086c565b5050565b61086882826040516024016107e6929190610c8b565b6040516020818303038152906040527f319af333000000000000000000000000000000000000000000000000000000007bffffffffffffffffffffffffffffffffffffffffffffffffffffffff19166020820180517bffffffffffffffffffffffffffffffffffffffffffffffffffffffff838183161783525050505061086c565b5050565b60008151905060006a636f6e736f6c652e6c6f679050602083016000808483855afa5050505050565b8280546108a190610f76565b90600052602060002090601f0160209004810192826108c3576000855561090a565b82601f106108dc57805160ff191683800117855561090a565b8280016001018555821561090a579182015b828111156109095782518255916020019190600101906108ee565b5b509050610917919061091b565b5090565b5b8082111561093457600081600090555060010161091c565b5090565b600061094b61094684610e00565b610ddb565b90508281526020810184848401111561096357600080fd5b61096e848285610f34565b509392505050565b600081359050610985816111c7565b92915050565b600082601f83011261099c57600080fd5b81356109ac848260208601610938565b91505092915050565b6000602082840312156109c757600080fd5b60006109d584828501610976565b91505092915050565b6000602082840312156109f057600080fd5b600082013567ffffffffffffffff811115610a0a57600080fd5b610a168482850161098b565b91505092915050565b6000610a2b8383610bc4565b905092915050565b610a3c81610ef8565b82525050565b610a4b81610ef8565b82525050565b6000610a5c82610e41565b610a668185610e64565b935083602082028501610a7885610e31565b8060005b85811015610ab45784840389528151610a958582610a1f565b9450610aa083610e57565b925060208a01995050600181019050610a7c565b50829750879550505050505092915050565b6000610ad182610e4c565b610adb8185610e80565b9350610aeb818560208601610f43565b610af4816110c6565b840191505092915050565b6000610b0a82610e4c565b610b148185610e91565b9350610b24818560208601610f43565b610b2d816110c6565b840191505092915050565b6000610b45603483610e91565b9150610b50826110d7565b604082019050919050565b6000610b68602783610e91565b9150610b7382611126565b604082019050919050565b6000610b8b600083610e75565b9150610b9682611175565b600082019050919050565b6000610bae602c83610e91565b9150610bb982611178565b604082019050919050565b6000606083016000830151610bdc6000860182610a33565b5060208301518482036020860152610bf48282610ac6565b9150506040830151610c096040860182610c14565b508091505092915050565b610c1d81610f2a565b82525050565b610c2c81610f2a565b82525050565b6000610c3d82610b7e565b9150819050919050565b60006020820190508181036000830152610c618184610a51565b905092915050565b60006020820190508181036000830152610c838184610aff565b905092915050565b60006040820190508181036000830152610ca58185610aff565b9050610cb46020830184610a42565b9392505050565b60006060820190508181036000830152610cd58186610aff565b9050610ce46020830185610a42565b8181036040830152610cf68184610aff565b9050949350505050565b60006040820190508181036000830152610d1a8185610aff565b9050610d296020830184610c23565b9392505050565b60006020820190508181036000830152610d4981610b38565b9050919050565b60006020820190508181036000830152610d6981610b5b565b9050919050565b60006020820190508181036000830152610d8981610ba1565b9050919050565b6000602082019050610da56000830184610c23565b92915050565b6000604082019050610dc06000830185610c23565b8181036020830152610dd28184610aff565b90509392505050565b6000610de5610df6565b9050610df18282610fa8565b919050565b6000604051905090565b600067ffffffffffffffff821115610e1b57610e1a611097565b5b610e24826110c6565b9050602081019050919050565b6000819050602082019050919050565b600081519050919050565b600081519050919050565b6000602082019050919050565b600082825260208201905092915050565b600081905092915050565b600082825260208201905092915050565b600082825260208201905092915050565b6000610ead82610f2a565b9150610eb883610f2a565b9250827fffffffffffffffffffffffffffffffffffffffffffffffffffffffffffffffff03821115610eed57610eec61100a565b5b828201905092915050565b6000610f0382610f0a565b9050919050565b600073ffffffffffffffffffffffffffffffffffffffff82169050919050565b6000819050919050565b82818337600083830152505050565b60005b83811015610f61578082015181840152602081019050610f46565b83811115610f70576000848401525b50505050565b60006002820490506001821680610f8e57607f821691505b60208210811415610fa257610fa1611068565b5b50919050565b610fb1826110c6565b810181811067ffffffffffffffff82111715610fd057610fcf611097565b5b80604052505050565b6000610fe482610f2a565b9150610fef83610f2a565b925082610fff57610ffe611039565b5b828206905092915050565b7f4e487b7100000000000000000000000000000000000000000000000000000000600052601160045260246000fd5b7f4e487b7100000000000000000000000000000000000000000000000000000000600052601260045260246000fd5b7f4e487b7100000000000000000000000000000000000000000000000000000000600052602260045260246000fd5b7f4e487b7100000000000000000000000000000000000000000000000000000000600052604160045260246000fd5b6000601f19601f8301169050919050565b7f547279696e6720746f207769746864726177206d6f7265206d6f6e657920746860008201527f616e2074686520636f6e7472616374206861732e000000000000000000000000602082015250565b7f4661696c656420746f207769746864726177206d6f6e65792066726f6d20636f60008201527f6e74726163742e00000000000000000000000000000000000000000000000000602082015250565b50565b7f5761697420666f72203130206d696e75746573206265666f726520736861726960008201527f6e672061206e6577207469700000000000000000000000000000000000000000602082015250565b6111d081610ef8565b81146111db57600080fd5b5056fea26469706673582212206dbb2e36227b879afd2c06628fbe10a9b9a3a88cd2bff48878733914813d9a6c64736f6c63430008040033",
  "linkReferences": {},
  "deployedLinkReferences": {}
}